:02000300C1003A
:10027D00E52475F00A84AFF0EF14601B14602914A7
:10028D00603214603D24047049C280C281C282C2B2
:10029D0083C284C285800CD280C281C282D283D2B5
:1002AD0084D285D286D28722C280C281D282C28375
:1002BD00C284800AC280C281C282C283D284D285A6
:1002CD00800CD280C281C282D283D284C285C28682
:0202DD00D287C6
:0102DF0022FC
:10002600AF26EFB40A0040030200E5900038F82836
:10003600287302005602006402007202007E02006B
:100046008C02009A0200A80200B60200C70200D580
:10005600C290C291C292C293C294C295805ED2905F
:10006600C291C292D293D294D2958050C290C2913C
:10007600D292C293C294800AC290C291C292C29393
:10008600D294D2958055D290C291C292D293D294F4
:10009600C2958047C290D291C292C293D294C29521
:1000A6008039C290D291C292C293C294C295802BDB
:1000B600C290C291C292D293D294D295D296C2974E
:1000C60022C290C291C292C293C294C295800CC2BF
:0F00D60090C291C292C293D294C295C296C29721
:0100E50022F8
:1000E600AF22EFB4070040030201729000F8F8282F
:1000F600287302010D02011B02012C0201380201C4
:1001060046020154020162C2A0C2A1C2A2C2A3C297
:10011600A4C2A5800CD2A0C2A1C2A2D2A3D2A4D24C
:10012600A5D2A6D2A722C2A0C2A1D2A2C2A3C2A40D
:10013600800AC2A0C2A1C2A2C2A3D2A4D2A580280C
:10014600D2A0C2A1C2A2D2A3D2A4C2A5801AC2A022
:10015600D2A1C2A2C2A3D2A4C2A5800CC2A0D2A11F
:0C016600C2A2C2A3C2A4C2A5C2A6D2A716
:01017200226A
:1002E000E52475F00A841460181460262402703224
:1002F000D2B0C2B1C2B2C2B3C2B4C2B5D2B6C2B732
:1003000022D2B0C2B1C2B2D2B3D2B4D2B5D2B6D276
:10031000B722D2B0C2B1D2B2C2B3C2B4D2B5C2B6A1
:02032000C2B762
:0103220022B8
:1001FF00E4F50D120355300165E52C6447705FE59A
:10020F002E642C7059E535642E7053F50D74282526
:10021F000DF8E6FF7400250DF582E43400F583EF49
:10022F00F0050DE50DB444E5900007E075F00AA464
:10023F00FFA3E02F24F8F524C394184009E5247593
:10024F00F0188485F024900009E024D0F522A3E073
:10025F0024D0F526A3E0F521A3E0F525D200C200B6
:0E026F0012027D1200261200E61202E08088C4
:100005000123000124000122000126000121000135
:070015002500C101012700D5
:10035500759850D29CE4F587758920758DFD758B50
:08036500FDD28ED2AFD2AC2212
:03002300020323B2
:07032300C0E0C0D075D01846
:10032A00E4C2ACAF99C298BF2404F523C201AE233C
:10033A00052374282EF8A61FE523C3943B400575B0
:06034A00233BD201D2ACFE
:05035000D0D0D0E03226
:0300000002017387
:0C017300787FE4F6D8FD75816B0201BABC
:10017F000201FFE493A3F8E493A34003F68001F296
:10018F0008DFF48029E493A3F85407240CC8C33381
:10019F00C4540F4420C8834004F456800146F6DF50
:1001AF00E4800B0102040810204080900003E47EDD
:1001BF00019360BCA3FF543F30E509541FFEE49345
:1001CF00A360010ECF54C025E060A840B8E493A30C
:1001DF00FAE493A3F8E493A3C8C582C8CAC583CA37
:1001EF00F0A3C8C582C8CAC583CADFE9DEE780BEEF
:01001C0000E3
:00000001FF
